:1000000003308A003B2B00000A108A100A11820775
:1000100028340C34013406340C2AE536F032F23040
:10002000F43AF2302005A519AE18E621000032306E
:1000300084008313000803192A280630F800F7010A
:10004000F70B2028F80B1F287B30F700F70B26282A
:10005000800B1D28080039182F2886113028861596
:10006000831686118312B918372806123828061607
:1000700083160612831239193F28861240288616E5
:10008000831686128312B9194728061348280617C3
:100090008316061300000611831206150330F700BD
:1000A000F70B502883160611831206110800BA01B7
:1000B0008316061183120615000083168615831217
:1000C0003A1086193A14831606168312BA10061AC5
:1000D000BA148316861683123A11861A3A158316B5
:1000E00006178312BA11061BBA158316061183125E
:1000F00006113A08F800080083160610831206104D
:100100008316861083128614000057207808B900E1
:1001100057207808B800390EF700F030F705770857
:100120003804F8007808B800B81B8028B60803190E
:100130009E288316061083120614A2288316061022
:1001400083120610000083168610831286100000AA
:100150008316061183120611370EB8000F30B8054A
:100160003808B9002B2037080F39B800B9002B2008
:100170000800831606108312061083168610831259
:10018000861083160611831206110F30B200172055
:10019000A4012408023C031CD5280330B9002B20FD
:1001A0000530B2001720A40AC9280230B9002B205C
:1001B000A4012408033C031CE62824080420A5000D
:1001C000B6012508B7007C20A40AD9288A110A1292
:1001D000482B8E30F7002508F8002408F900FA01B2
:1001E000F808031DFD287908F800F9010830F70226
:1001F000F808031DFD28F70105290310F81B042941
:10020000F90DF80DF703FD28F8138A110A12712B66
:10021000310803197829B900350803197829B90775
:10022000031819297F30B902031C7829031978298A
:100230001D298130B907031878293908F700F8011A
:10024000F901FA013208BD00BD173308BC003408BB
:10025000BB001830B900BA013B1C46293808FA0720
:10026000031C3829F90A031D3829F80A0319BA179B
:100270003708F907031C3F29F80A0319BA1736088B
:10028000B300B3173308F8070318BA17BA0DF80C00
:10029000F90CFA0CBD0CBC0CBB0C0310B90B2B29D0
:1002A0000130F70703187829F81B5D29BD0DFA0DF9
:1002B000F90DF80DF70303197829BD1F6E29FA0A05
:1002C000031D6E29F90A031D6E29F80A031D6E2904
:1002D000F80CF90CFA0CF70A031978293208BA005D
:1002E0003608BA06BA1F7629F8177C29F8137C2934
:1002F000F701F801F901FA01080031080C3A031975
:100300008829063A03199029023A0319A629AB292C
:10031000B6010130B7007C200230B2001720B029AE
:100320000130B2000230B300330B97299A294030D4
:10033000B4009B29B40101303202B407340880387C
:10034000B500B6013508B7007C20B029B6011030E1
:10035000B7007C20B0290130B6003108B7007C20FE
:1003600008000B08A5008B13831603178C170C14B9
:100370000000000083120313A51B8B170318E82944
:1003800003170C087F390313A50003170D08031387
:10039000A60003170F080313A7002508B1007D214D
:1003A000260803178D000313270803178F00031374
:1003B0000B08A8008B13831603178C170C1400006E
:1003C000000083120313A81B8B17A40BE829072A2C
:1003D00003170C0D0E0D7F390313A50003170D082D
:1003E0000313A60003170F080313A7002508B10085
:1003F0007D21260803178D000313270803178F009C
:100400008D0A03198F0A03100313A40BB1298A1153
:100410000A129C2B83180F2A393084008313F701AA
:10042000F801F901FA01B901BA01BB01BC013808B0
:1004300037043604350403194D2A2030BD0003105B
:10044000B10DB20DB30DB40DB90DBA0DBB0DBC0D90
:1004500038083C02031D362A37083B02031D362AA2
:1004600036083A02031D362A35083902031C472A8A
:100470003508B9023608031C360FBA023708031CC8
:10048000370FBB023808031C380FBC020314F70DEA
:10049000F80DF90DFA0DBD0B1F2A39088000840AEA
:1004A0003A088000840A3B088000840A3C088000E7
:1004B00008000408A9002808AB000319782A2708B7
:1004C000B4002608B3002508B2002408B100B80122
:1004D000B7012030B6008230B50008217A08A700A5
:1004E0007908A6007808A5007708A400AB0B5F2A5E
:1004F0002708B4002608B3002508B2002408B1007C
:100500003108B63CB100FA013208B500B217031049
:10051000B20CB30CB40CFA0CF90CF80CF70CB10BD0
:10052000872AB51F9E2AF709F809F909FA09F70A77
:100530000319F80A0319F90A0319FA0A7A08A70035
:100540007908A6007808A5007708A400A71FB52A97
:10055000A903A916A409A509A609A709A40A0319AC
:10056000A50A0319A60A0319A70A3B30B0009A305E
:10057000AF00CA30AE00AD010A30AB002808031945
:10058000A90A83142430840083132708B4002608A2
:10059000B3002508B2002408B1003008B8002F08C5
:1005A000B7002E08B6002D08B5000A227808F70813
:1005B000031DED2A280A2B020319ED2A2908031925
:1005C000EF2A0F392B020319E72A03181F2BA91B47
:1005D0001F2B291BEF2A20301B2B2030A905A91E19
:1005E000FD2AA9122808031DA9037708A9002D30A8
:1005F000B1007D212908F700A90128082B02031D5D
:100600000B2B7708A9002E30B1007D212908F700B7
:100610002030A90500303030A91E1B2BA912280854
:10062000031DA9037708A9002D30B1007D212908F9
:10063000F700A9013030F7077708B1007D2183105A
:100640003008B4002F08B3002E08B2002D08B10006
:10065000B801B701B6010A30B5000A227A08B00025
:100660007908AF007808AE007708AD00AB0BC12A5F
:100670008A110A12A92B03081F39830083161F143D
:100680009F141F159F1107309C0083138312B928F4
:100690003230B200172083161F109F141F159F15AC
:1006A0001F1383121F179F1383169F1783121F1484
:1006B0000030F8001F08C73978049F006430B2008A
:1006C00017201F151F19622B1E08F90083161E081C
:1006D000F8007908FA001E088312A4007908A50022
:1006E000E9287A08A3007908A2007808A100770811
:1006F000A0002308B4002208B3002108B20020089B
:10070000B1002330B800DB30B7007930B6007D305F
:10071000B50008217A08A3007908A2007808A10092
:100720007708A0000C3003178D0000308F000310F5
:100730000E300313A400B129023084002308A7005F
:100740002208A6002108A5002008A4000130A80066
:10075000592A4330B1007D216430B2001720582B54
:02076000630034
:02400E00723FFF
:00000001FF
;PIC16F877A
;CRC=EBA1  CREATED="30-ago.-23 11:03"
